:0400000007EF00F016
:0A0008005E82E3ED04F0DEEF05F088
:100800000001000A006400E80310275468652076A0
:10081000616C7565206F6620636F756E74657220FC
:1008200069733A2025640000110E146E000E156ED7
:10083000CCEF04F0250E1A18D8B421EF04F023EF02
:1008400004F02DEF04F00DC0D9FF0EC0DAFF1AC07E
:10085000DFFF0D4A0E2ACCEF04F0000E166E0FC01B
:10086000F6FF10C0F7FF0F4A102A0800F5CF1AF064
:100870001A50000AD8B4DDEF04F0640AD8B447EF88
:1008800004F00D0AD8B447EF04F0CCEF04F014C024
:10089000D9FF15C0DAFFDECF18F0DDCF19F0020E58
:1008A0001426000E152219BE5AEF04F058EF04F07A
:1008B00060EF04F0030E1612186C191ED8B0192A36
:1008C000010E1A6E1A50020D010EF324F66E080E78
:1008D000F420F76E0900F550185C0900F55019581E
:1008E000D8B075EF04F077EF04F079EF04F083EF00
:1008F00004F01A2A050E1A18D8A481EF04F083EF29
:1009000004F062EF04F016C013F0030E1316D8B40F
:100910008CEF04F08EEF04F096EF04F00DC0D9FFD9
:100920000EC0DAFF2D0EDF6E0D4A0E2A1AC017F028
:10093000C3EF04F01750020D010EF324F66E080EFB
:10094000F420F76E0900F5CF03F00A00F5CF04F0AC
:1009500018C001F019C002F072EC05F001C008F0F7
:1009600002C009F0000E0B6E0A0E0A6EACEC05F028
:100970000850300F1A6E0DC0D9FF0EC0DAFF1AC032
:10098000DFFF0D4A0E2A17061728D8A4CAEF04F075
:10099000CCEF04F09AEF04F00FC0F6FF10C0F7FFA1
:1009A0000F4A102A0800F5CF1AF01A50D8A4DBEF2E
:1009B00004F0DDEF04F01AEF04F00DC0D9FF0EC013
:1009C000DAFFDF6A12000600D9CF1BF0DACF1CF085
:1009D000F3CF1DF0F4CF1EF0F6CF1FF0F7CF20F0CD
:1009E000F8CF21F0F5CF22F0F2A2F9EF04F0FBEFFF
:1009F00004F019EF05F02A2A000E266E300E256E3F
:100A0000300E2A24256E266A000E2622F2929EA817
:100A10000CEF05F00EEF05F007EF05F025C0ADFF78
:100A20009EA815EF05F017EF05F010EF05F00D0E7D
:100A3000AD6EF0A21EEF05F020EF05F060EF05F0BF
:100A40002B2AF0922C0E0D6E000E0E6E0B0E0F6EFA
:100A5000080E106E2BC011F0126A14EC04F0000E98
:100A6000246E000E236E46EF05F09EA83AEF05F0C7
:100A70003CEF05F035EF05F02C0E2324D96E000E67
:100A80002420DA6EDF50AD6E234A242A2C0E016E2C
:100A9000000E026EFBEC05F00150235C025024585E
:100AA000D8A055EF05F057EF05F035EF05F09EA8FB
:100AB0005CEF05F05EEF05F057EF05F00D0EAD6E43
:100AC00022C0F5FF21C0F8FF20C0F7FF1FC0F6FFCE
:100AD0001EC0F4FF1DC0F3FF1CC0DAFF1BC0D9FF0E
:100AE0005E921100000E066E000E056E035004109B
:100AF000D8B47DEF05F07FEF05F0A7EF05F0010E0C
:100B0000076E87EF05F0D89003360436072A04AE47
:100B10008CEF05F08EEF05F083EF05F0D8900536E9
:100B200006360350015C04500258D8A09AEF05F035
:100B30009CEF05F0A1EF05F00350015E0450025A4E
:100B40000580D89004320332072E8EEF05F005C0E1
:100B500001F006C002F012000A500B10D8B4B3EF37
:100B600005F0B5EF05F0D9EF05F0010E0C6EBDEF05
:100B700005F0D8900A360B360C2A0BAEC2EF05F002
:100B8000C4EF05F0B9EF05F00A50085C0B500958A6
:100B9000D8A0CDEF05F0CFEF05F0D3EF05F00A5068
:100BA000085E0B50095AD8900B320A320C2EC4EF53
:100BB00005F008C008F009C009F01200560EF66EE4
:100BC0000C0EF76E000EF86E00EE46F010EE18F008
:100BD0000900F5CFEEFFE550E150FAE100EE25F017
:100BE000210EEE6AE806FDE15E905E92000EF86E60
:100BF000000137EF06F001C003F002C004F003EF7C
:100C000006F0034A042A03C0D9FF04C0DAFFDF500C
:100C1000D8A40DEF06F00FEF06F001EF06F001503B
:100C2000035C016E02500458026E1200720ED36E05
:100C30000F0EC16E949C948E0C0EAF6E900EAB6E28
:100C4000200EAC6EF28ED09EF288F292F19CF0886B
:100C5000F092F18812004C617572612044616E69F6
:100C6000656C61000000000000000000000016EC50
:0A0C700006F039EF06F007EF00F080
:020000040030CA
:0E000000000B191EFF8381FF0FC00FE00F40A1
:00000001FF
