:0400000028EF3FF0B6
:107E18008BEC3FF0A9EC3FF010EF3FF000EF00F0E3
:107E2800316E8D9031380F0B6DEC3FF031506DECA9
:107E38003FF01200316E8D8031380F0B6DEC3FF042
:107E480031506DEC3FF01200760EF66E7E0EF76E36
:107E5800000EF86E00EE01F010EE2EF00900F5CFDE
:107E6800EEFFE550E150FAE100010CEF3FF04576F6
:107E78006572796F6E652100000000000000000047
:107E8800000000000000000048656C6C6F210000D5
:107E98000000000000000000000000002FC031F0CA
:107EA80030C032F05AEF3FF02F4A302A2FC0D9FFA6
:107EB80030C0DAFFDF50D8A464EF3FF066EF3FF040
:107EC80058EF3FF031502F5C2F6E32503058306EE3
:107ED8001200306E8D82270E2F6EF50EE82EFED71B
:107EE8002F2EFCD700F030C08CFF270E2F6EF50E1A
:107EF800E82EFED72F2EFCD700F08D92270E2F6E7E
:107F0800F50EE82EFED72F2EFCD700F01200720EC9
:107F1800D36E0F0EC16E9380000E956E000E966E96
:107F2800D09EF28EF288F292F19C020E14EC3FF091
:107F3800060E14EC3FF00F0E14EC3FF0280E14EC74
:107F48003FF0010E14EC3FF01200800E14EC3FF0ED
:107F5800000E366E000E356EBDEF3FF01B0E352459
:107F6800D96E000E3620DA6EDF501EEC3FF0354A2F
:107F7800362A1B0E2F6E000E306E52EC3FF02F503B
:107F8800355C30503658D8A0CCEF3FF0CEEF3FF0FC
:107F9800B2EF3FF0020E346E040E336EBA0EE82EC6
:107FA800FED7332EFCD7342EFAD700D0C00E14ECEF
:107FB8003FF0000E386E000E376EEEEF3FF0010E08
:107FC8003724D96E000E3820DA6EDF501EEC3FF0F1
:107FD800374A382A010E2F6E000E306E52EC3FF0F1
:107FE8002F50375C30503858D8A0FDEF3FF0FFEFE6
:087FF8003FF0E3EF3FF012003F
:020000040030CA
:0E000000000B191EFF8381FF0FC00FE00F40A1
:00000001FF
