:040000003FEF3FF09F
:107E24008BEC3FF0A9EC3FF016EF3FF000EF00F0D1
:107E3400216E8D9021380F0B6DEC3FF021500F0B0C
:107E44006DEC3FF01200216E8D8021380F0B6DEC2C
:107E54003FF021500F0B6DEC3FF012004576657238
:107E6400796F6E6521000000000000000000000032
:107E740048656C6C6F2100000000600EF66E7E0E8B
:107E8400F76E000EF86E00EE01F010EE1EF0090021
:107E9400F5CFEEFFE550E150FAE1000112EF3FF0BB
:107EA4001FC021F020C022F05AEF3FF01F4A202AC1
:107EB4001FC0D9FF20C0DAFFDF50D8A464EF3FF021
:107EC40066EF3FF058EF3FF021501F5C1F6E2250C9
:107ED4002058206E1200206E8D82270E1F6EF50E24
:107EE400E82EFED71F2EFCD700F020C08CFF270EF3
:107EF4001F6EF50EE82EFED71F2EFCD700F08D92D4
:107F0400270E1F6EF50EE82EFED71F2EFCD700F0AD
:107F14001200720ED36E0F0EC16E9380000E956E1A
:107F2400000E966ED09EF29EF288F292F19C020EA2
:107F34001AEC3FF0060E1AEC3FF00F0E1AEC3FF06D
:107F4400280E1AEC3FF0010E1AEC3FF01200800EDE
:107F54001AEC3FF0000E266E000E256EBDEF3FF0CA
:107F6400150E2524D96E000E2620DA6EDF5025EC7E
:107F74003FF0254A262A150E1F6E000E206E52EC85
:107F84003FF01F50255C20502658D8A0CCEF3FF07E
:107F9400CEEF3FF0B2EF3FF0020E246E040E236EDC
:107FA400BA0EE82EFED7232EFCD7242EFAD700D003
:107FB400C00E1AEC3FF0000E286E000E276EEEEF96
:107FC4003FF0010E2724D96E000E2820DA6EDF5010
:107FD40025EC3FF0274A282A010E1F6E000E206E62
:107FE40052EC3FF01F50275C20502858D8A0FDEFDA
:0C7FF4003FF0FFEF3FF0E3EF3FF0120022
:020000040030CA
:0E000000000B191EFF8381FF0FC00FE00F40A1
:00000001FF
