:0400000007EF00F016
:10000800238238ED00F050EF00F0126E20EE13F06E
:1000180010EE04F0090EDBCFE3FFE806FCE21DC09A
:100028000EF01EC00FF01FC010F020C011F0040E1B
:100038001224D96EDA6A000EDA22DF508C6E0E0EA8
:100048000124D96EDA6A000EDA22DF50896E030EB7
:10005800036E080E026E770EE82EFED7022EFCD72E
:10006800032EFAD700F012000600F2A23EEF00F0CD
:1000780040EF00F04EEF00F0F292222A0A0E22180A
:10008800D8A449EF00F04BEF00F04EEF00F0000E5F
:10009800226E212A23921100100EF66E010EF76EC1
:1000A800000EF86E00EE13F010EE0EF00900F5CF1A
:1000B800EEFFE550E150FAE1226A216A239023928B
:1000C80000017DEF00F0720ED36E0F0EC16E000EB0
:1000D800926E030E936E000E956E000E896E000EE2
:1000E8008A6E000E8C6ED09EF28EF288F292F19C8F
:1000F800120067EC00F021C001F0225009EC00F07A
:100108007FEF00F007EF00F0BF86DBCFE6EDFD875D
:06011800FFE701020408EC
:020000040030CA
:0E00000000051F1FFF8385FF0FC00FE00F409C
:00000001FF
