:0400000007EF00F016
:100008003C8209ED00F0CAEF00F00600E1CF12F0E3
:10001800E2CF13F0D9CF14F0DACF15F0F2A217EF30
:1000280000F019EF00F049EF00F0F292000E016EB7
:100038003A507EEC00F03A2A0A0E3A18D8A427EF74
:1000480000F029EF00F02EEF00F0000E3A6E392A8A
:1000580049EF00F00A0E3918D8A435EF00F037EF51
:1000680000F03CEF00F0000E396E382A49EF00F03E
:100078000A0E3818D8A443EF00F045EF00F049EF16
:1000880000F0000E386E49EF00F015C0DAFF14C01A
:10009800D9FF13C0E2FF12C0E1FF3C921100266EA7
:1000A80020EE2AF010EE18F0090EDBCFE3FFE80689
:1000B800FCE234C022F035C023F036C024F037C04B
:1000C80025F0180E2624D96EDA6A000EDA22DF50DF
:1000D8008C6E220E1624D96EDA6A000EDA22DF50F0
:1000E800896E680E176EE40EE82EFED7172EFCD721
:1000F80000D01200116E20EE2AF010EE03F0090E67
:10010800DBCFE3FFE806FCE234C00DF035C00EF0AB
:1001180036C00FF037C010F0030E1124D96EDA6A1A
:10012800000EDA22DF508C6E0D0E0124D96EDA6AC9
:10013800000EDA22DF50896E680E026EE40EE82E99
:10014800FED7022EFCD700D01200000E296E000E3A
:10015800286E28C016F0000E53EC00F0D00E276E63
:10016800CA0EE82EFED7272EFCD7284A292A29BEF0
:10017800C7EF00F0295009E1040E285CD8A0C7EFAA
:1001880000F0C9EF00F0ADEF00F01200020EF66EBD
:10019800020EF76E000EF86E00EE2AF010EE0EF06A
:1001A8000900F5CFEEFFE550E150FAE13B6A3A6A03
:1001B800396A386A3C903C920001F9EF00F0720EFF
:1001C800D36E0F0EC16E000E926E030E936E000E6C
:1001D800956E000E896E000E8A6E000E8C6ED09E93
:1001E800F28EF288F292F19C1200E3EC00F0A9EC96
:1001F80000F0FBEF00F007EF00F0BF86DBCFE6ED85
:08020800FD87FFE70102040875
:020000040030CA
:0E00000000051F1FFF8385FF0FC00FE00F409C
:00000001FF
