:0400000008EF00F015
:0C00080018829E50189211001CEF08F0A6
:101000000000720ED36E000E0F013A6F000E3B6FA0
:10101000000E956EF28EF28CD09E9D8A9E9A670E7F
:10102000AF6E948C948EAC9CAC8AAC98AC84AB8E36
:10103000AB9CAB88B8961200620EF66E100EF76E7F
:10104000000EF86E00EE01F010EE17F00900F5CF7B
:10105000EEFFE550E150FAE11890189200013DEFE3
:1010600008F03030496E7465727275707420436F89
:09107000756E746572203A2000CF
:0C107A0001EC08F03FEF08F008EF00F078
:020000040030CA
:0E000000FF281F3CFFBF81FF0FC00FE00F4025
:00000001FF
