:0400000019EF00F004
:100008001D829EAA0AEF00F00CEF00F017EF00F037
:10001800410EAE18D8A413EF00F015EF00F017EF5B
:0E00280000F01A4A1B2A1D921100B1EF08F0D9
:101000000000680E186EE40EE82EFED7182EFCD7EE
:1010100000D0300E166E000EE0EC08F01A0E186EBE
:10102000F80EE82EFED7182EFCD700D0300E166E24
:10103000000EE0EC08F01A0E186EF80EE82EFED73F
:10104000182EFCD700D0300E166E000EE0EC08F023
:10105000020E166E000EE0EC08F0060E166E000E84
:10106000E0EC08F00F0E166E000EE0EC08F0280E13
:10107000166E000EE0EC08F0010E166E000EE0ECAD
:1010800008F0020E196E040E186EBA0EE82EFED786
:10109000182EFCD7192EFAD700D01200800E166E2B
:1010A000000EE0EC08F0000E196E000E186E64EFF2
:1010B00008F01850030FD96EDA6ADF50166E010E71
:1010C000E0EC08F0184A192A030E146EC9EC08F077
:1010D0001450185C15501958D8A071EF08F073EF30
:1010E00008F059EF08F01200720ED36E000E0F01D7
:1010F0003A6F000E3B6F9498949A000E956E8B9801
:101100008B9AF28EF28CD09E9D8A9E9A670EAF6E5D
:10111000948C948EAC9CAC8AAC98AC84AB8EAB9C1B
:10112000AB88B8961200156E8B8A4E0E146EEB0EBD
:10113000E82EFED7142EFCD7000015C08CFF4E0EF3
:10114000146EEB0EE82EFED7142EFCD700008B9AFF
:101150004E0E146EEB0EE82EFED7142EFCD70000B8
:101160001200F00EF66E110EF76E000EF86E00EE25
:1011700001F010EE13F00900F5CFEEFFE550E1505D
:10118000FAE11C6A1B6A1A6A1D901D920001EEEFBB
:1011900008F014C016F0CEEF08F0142A1450D96EDF
:1011A000DA6ADF50D8A4D7EF08F0D9EF08F0CDEF16
:1011B00008F01650145C146E156A14BE1506120061
:1011C000176E17B002D08B9801D08B8816380F0B92
:1011D00093EC08F0165093EC08F0120074EC08F051
:1011E00001EC08F04EEC08F0F4EF08F019EF00F015
:1011F0003030496E74657220436F756E746572206D
:031200003A200091
:020000040030CA
:0E000000FF281F3CFFBF81FF0FC00FE00F4025
:00000001FF
