:040000002CEF00F0F1
:100008002182D9CF1FF0DACF20F0F2A20EEF00F054
:1000180010EF00F026EF00F0F29201EC08F0022A4F
:100028003A0E0218D8A41BEF00F01DEF00F020EFE5
:1000380000F0300E026E012A02C01AF01B6A01504D
:1000480044EC08F020C0DAFF1FC0D9FF219211004C
:0400580078EF08F045
:101000000000000E1E6E000E1D6E16EF08F09EA86A
:101010000CEF08F00EEF08F007EF08F01D50030F7B
:10102000D96EDA6ADF50AD6E1D4A1E2A030E1A6EA3
:1010300061EC08F01A501D5C1B501E58D8A023EF1D
:1010400008F025EF08F007EF08F01200720ED36EDB
:101050000F013A9D3A9F39919380F28ED09EF28C87
:101060009D8A9D889E989E9AF288F292F19C670EC6
:10107000AF6E948C948EAC9CAC8AAC98AC84AB8EE6
:10108000AB9CAB88B89612001C6E9EA84AEF08F085
:101090004CEF08F045EF08F01CC0ADFF9EA853EFE1
:1010A00008F055EF08F04EEF08F01AC0ADFF9EA80B
:1010B0005CEF08F05EEF08F057EF08F00D0EAD6E34
:1010C00012001AC01CF066EF08F01A2A1A50D96EE6
:1010D000DA6ADF50D8A46FEF08F071EF08F065EF1F
:1010E00008F01C501A5C1A6E1B6A1ABE1B0612000E
:1010F0001A0EF66E110EF76E000EF86E00EE01F08D
:1011000010EE19F00900F5CFEEFFE550E150FAE1DD
:101110002190219200019AEF08F030303020496E82
:101120007465727275707420436F756E7465722089
:031130003A200062
:0C11340026EC08F09CEF08F02CEF00F017
:020000040030CA
:0E000000FF281F3CFFBF81FF0FC00FE00F4025
:00000001FF
