:0400000035EF00F0E8
:100008001B82D9CF19F0DACF1AF0F2A20EEF00F066
:1000180010EF00F02FEF00F0F2929EA816EF00F01C
:1000280018EF00F011EF00F0410EAD6E01EC08F092
:10003800022A3A0E0218D8A424EF00F026EF00F0A6
:1000480029EF00F0300E026E012A02C014F0156A82
:10005800015044EC08F01AC0DAFF19C0D9FF1B920E
:06006800110078EF08F022
:101000000000000E186E000E176E16EF08F09EA876
:101010000CEF08F00EEF08F007EF08F01750030F81
:10102000D96EDA6ADF50AD6E174A182A030E146EB5
:1010300061EC08F01450175C15501858D8A023EF35
:1010400008F025EF08F007EF08F01200720ED36EDB
:101050000F013A9D3A9F39919380F28ED09EF28C87
:101060009D8A9D889E989E9AF288F292F19C670EC6
:10107000AF6E948C948EAC9CAC8AAC98AC84AB8EE6
:10108000AB9CAB88B8961200166E9EA84AEF08F08B
:101090004CEF08F045EF08F016C0ADFF9EA853EFE7
:1010A00008F055EF08F04EEF08F014C0ADFF9EA811
:1010B0005CEF08F05EEF08F057EF08F00D0EAD6E34
:1010C000120014C016F066EF08F0142A1450D96EFE
:1010D000DA6ADF50D8A46FEF08F071EF08F065EF1F
:1010E00008F01650145C146E156A14BE1506120032
:1010F0001A0EF66E110EF76E000EF86E00EE01F08D
:1011000010EE13F00900F5CFEEFFE550E150FAE1E3
:101110001B901B92000197EF08F030303020496E91
:0D1120007420436F756E746572203A2000D4
:0C112E0026EC08F099EF08F035EF00F017
:020000040030CA
:0E000000FF281F3CFFBF81FF0FC00FE00F4025
:00000001FF
