:040000000FEF00F00E
:100008003E829EAA0AEF00F00CEF00F00DEF00F020
:10001800AE503E9211004BEF01F0800E376E000E8D
:1000280060EC01F0000E3B6E26EF00F0010E3B2461
:10003800D96EDA6A000EDA22DF50376E010E60ECF4
:1000480001F03B2A010E356E000E366E16EC01F0FB
:100058003B50396E3A6A3550395C36503A58D8A018
:1000680038EF00F03AEF00F01AEF00F0C00E376EEC
:10007800000E60EC01F0000E3C6E4FEF00F0250E14
:100088003C24D96EDA6A000EDA22DF50376E010E90
:1000980060EC01F03C2A250E356E000E366E16EC2B
:1000A80001F03C50396E3A6A3550395C36503A584E
:1000B800D8A061EF00F063EF00F043EF00F0940E7A
:1000C800376E000E60EC01F0000E3D6E78EF00F028
:1000D800150E3D24D96EDA6A000EDA22DF50376E2B
:1000E800010E60EC01F03D2A150E356E000E366EDD
:1000F80016EC01F03D50396E3A6A3550395C36508D
:100108003A58D8A08AEF00F08CEF00F06CEF00F0BE
:100118001200680E396EE40EE82EFED7392EFCD791
:1001280000D0300E376E000E60EC01F01A0E396EFA
:10013800F80EE82EFED7392EFCD700D0300E376ED9
:10014800000E60EC01F01A0E396EF80EE82EFED79C
:10015800392EFCD700D0300E376E000E60EC01F05F
:10016800020E376E000E60EC01F0060E376E000EC0
:1001780060EC01F00F0E376E000E60EC01F0280EF7
:10018800376E000E60EC01F0010E376E000E60EC69
:1001980001F0150E3A6E4B0E396EBE0EE82EFED7E4
:1001A800392EFCD73A2EFAD700D01200366E8B8A39
:1001B8004E0E356EEB0EE82EFED7352EFCD700F02E
:1001C80036C08CFF4E0E356EEB0EE82EFED7352E60
:1001D800FCD700F08B9A4E0E356EEB0EE82EFED74C
:1001E800352EFCD700F01200720ED36E0F013A992B
:1001F8003A9B3A9D3A9F000E3B6F9498949A000E52
:10020800956E8B988B9A000E8C6EF28EF28CD09E27
:100218009D8A9E9A670EAF6EAC84B896AB88AC98F0
:10022800AB8E120035C037F036C038F01EEF01F043
:10023800354A362A35C0D9FF36C0DAFFDF50D8A490
:1002480028EF01F02AEF01F01CEF01F03750355C80
:10025800356E38503658366E120048656C6C6F2013
:10026800616E642057656C636F6D65210000436F94
:10027800756E74657220496E7420323A2000436F9F
:10028800756E74657220496E7420303A2000620ED3
:10029800F66E020EF76E000EF86E00EE01F010EE2C
:1002A80034F00900F5CFEEFFE550E150FAE13E9059
:1002B8003E9200016EEF01F0386E38B002D08B9894
:1002C80001D08B8837380F0BDAEC00F03750DAECB6
:1002D80000F01200F8EC00F08DEC00F011EC00F0EA
:0802E80074EF01F00FEF00F0CC
:020000040030CA
:0E000000FF281F3CFFBF81FF0FC00FE00F4025
:00000001FF
