:0400000024EF00F0F9
:1000080042829EAA0AEF00F00CEF00F022EF00F007
:10001800300EAE18D8A413EF00F015EF00F021EF62
:1000280000F0D00E376E000EA1EC01F0380E376EDE
:10003800010EA1EC01F022EF00F0AE504292110047
:100048007EEF01F0800E3B6E000E93EC01F0000E87
:100058003F6E3BEF00F0010E3F24D96EDA6A000EC6
:10006800DA22DF503B6E010E93EC01F03F2A010EBD
:10007800396E000E3A6E49EC01F03F503D6E3E6A13
:1000880039503D5C3A503E58D8A04DEF00F04FEF44
:1000980000F02FEF00F0C00E3B6E000E93EC01F065
:1000A800000E406E64EF00F0250E4024D96EDA6A27
:1000B800000EDA22DF503B6E010E93EC01F0402A6D
:1000C800250E396E000E3A6E49EC01F040503D6E37
:1000D8003E6A39503D5C3A503E58D8A076EF00F061
:1000E80078EF00F058EF00F0940E3B6E000E93ECA2
:1000F80001F0000E416E8DEF00F0150E4124D96E0F
:10010800DA6A000EDA22DF503B6E010E93EC01F042
:10011800412A150E396E000E3A6E49EC01F0415035
:100128003D6E3E6A39503D5C3A503E58D8A09FEF2C
:1001380000F0A1EF00F081EF00F01200680E3D6EB4
:10014800E40EE82EFED73D2EFCD700D0300E3B6ED5
:10015800000E93EC01F01A0E3D6EF80EE82EFED755
:100168003D2EFCD700D0300E3B6E000E93EC01F014
:100178001A0E3D6EF80EE82EFED73D2EFCD700D0A5
:10018800300E3B6E000E93EC01F0020E3B6E000E3B
:1001980093EC01F0060E3B6E000E93EC01F00F0E8F
:1001A8003B6E000E93EC01F0280E3B6E000E93ECB4
:1001B80001F0010E3B6E000E93EC01F0150E3E6E41
:1001C8004B0E3D6EBE0EE82EFED73D2EFCD73E2EC2
:1001D800FAD700D012003A6E8B8A4E0E396EEB0EAB
:1001E800E82EFED7392EFCD700F03AC08CFF4E0E11
:1001F800396EEB0EE82EFED7392EFCD700F08B9A1D
:100208004E0E396EEB0EE82EFED7392EFCD700F0D5
:100218001200720ED36E0F013A993A9B3A9D3A9F9B
:10022800000E3B6F9498949A000E956E8B988B9A5B
:10023800000E8C6EF28EF28CD09E9D8A9E9A670E6E
:10024800AF6EAC84B896AB88AC98AB8E1200366EA5
:100258008B8A4E0E356EEB0EE82EFED7352EFCD768
:1002680000F036C08CFF4E0E356EEB0EE82EFED732
:10027800352EFCD700F08B9A4E0E356EEB0EE82E1D
:10028800FED7352EFCD700F0120039C03BF03AC03B
:100298003CF051EF01F0394A3A2A39C0D9FF3AC047
:1002A800DAFFDF50D8A45BEF01F05DEF01F04FEF0C
:1002B80001F03B50395C396E3C503A583A6E1200A6
:1002C80048656C6C6F20616E642057656C636F6D58
:1002D800652100003220496E7420436F756E746585
:1002E800723A20003020496E7420436F756E746531
:1002F800723A2000C80EF66E020EF76E000EF86E07
:1003080000EE01F010EE34F00900F5CFEEFFE550F5
:10031800E150FAE1429042920001AFEF01F03C6EE9
:100328003CB002D08B9801D08B883B380F0BEFEC98
:1003380000F03B50EFEC00F01200386E38B002D0FD
:100348008B9801D08B8837380F0B2BEC01F0375086
:100358002BEC01F012000DEC01F0A2EC00F026EC01
:0A03680000F0B5EF01F024EF00F003
:020000040030CA
:0E000000FF281F3CFFBF81FF0FC00FE00F4025
:00000001FF
