:0400000007EF00F016
:100008000682069211009BEF00F0680E056EE40E62
:10001800E82EFED7052EFCD700D0300E036E000E5A
:1000280085EC00F01A0E056EF80EE82EFED7052EA8
:10003800FCD700D0300E036E000E85EC00F01A0ECF
:10004800056EF80EE82EFED7052EFCD700D0300E30
:10005800036E000E85EC00F0020E036E000E85ECB8
:1000680000F0060E036E000E85EC00F00F0E036E16
:10007800000E85EC00F0280E036E000E85EC00F0F3
:10008800010E036E000E85EC00F01A0E056EF80ED8
:10009800E82EFED7052EFCD700D01200026E8B8A00
:1000A8004E0E016EEB0EE82EFED7012EFCD700F0A7
:1000B80002C08CFF4E0E016EEB0EE82EFED7012E0D
:1000C800FCD700F08B9A4E0E016EEB0EE82EFED791
:1000D800012EFCD700F01200720ED36E0F013A9970
:1000E8003A9B3A9D3A9F000E3B6F9498949A000E63
:1000F800956E8B988B9A000E8C6EAC98AB8EAB88F5
:100108001200046E04B002D08B9801D08B8803389B
:100118000F0B52EC00F0035052EC00F0120070ECA0
:1001280000F009EC00F097EF00F007EF00F0069000
:080138000692000193EF00F0B4
:020000040030CA
:0E000000FF281F3CFFBF81FF0FC00FE00F4025
:00000001FF
