:040000002DEF00F0F0
:100008000C829EAA0AEF00F00CEF00F02BEF00F034
:10001800AECF05F0320E0518D8A415EF00F017EF93
:1000280000F02BEF00F0C00E036E000EF9EC00F0AC
:100038004C0E036E010EF9EC00F0430E036E010E38
:10004800F9EC00F0440E036E010EF9EC00F00C928E
:10005800110011EF01F0680E0A6EE40EE82EFED7CB
:100068000A2EFCD700D0300E086E000EEBEC00F024
:100078001A0E0A6EF80EE82EFED70A2EFCD700D00C
:10008800300E086E000EEBEC00F01A0E0A6EF80E39
:10009800E82EFED70A2EFCD700D0300E086E000ED0
:1000A800EBEC00F0020E086E000EEBEC00F0060E12
:1000B800086E000EEBEC00F00F0E086E000EEBEC75
:1000C80000F0280E086E000EEBEC00F0010E086E32
:1000D800000EEBEC00F0150E0B6E4B0E0A6EBE0E0A
:1000E800E82EFED70A2EFCD70B2EFAD700D0120026
:1000F800076E8B8A4E0E066EEB0EE82EFED7062E86
:10010800FCD700F007C08CFF4E0E066EEB0EE82EF3
:10011800FED7062EFCD700F08B9A4E0E066EEB0E1D
:10012800E82EFED7062EFCD700F01200720ED36E12
:100138000F013A993A9B3A9D3A9F000E3B6F94986B
:10014800949A000E956E8B988B9A000E8C6EF28E98
:10015800F28CD09E9D8A9E9A670EAF6EAC84B8963C
:10016800AB88AC98AB8E1200026E8B8A4E0E016E75
:10017800EB0EE82EFED7012EFCD700F002C08CFF54
:100188004E0E016EEB0EE82EFED7012EFCD700F0C6
:100198008B9A4E0E016EEB0EE82EFED7012EFCD781
:1001A80000F01200800E086E000EEBEC00F04C0E12
:1001B800086E010EEBEC00F0430E086E010EEBEC3E
:1001C80000F0440E086E010EEBEC00F01200096E10
:1001D80009B002D08B9801D08B8808380F0B7CECC3
:1001E80000F008507CEC00F01200046E04B002D05D
:1001F8008B9801D08B8803380F0BB8EC00F00350B4
:10020800B8EC00F012009AEC00F02FEC00F0D6ECFD
:1002180000F00DEF01F02DEF00F00C900C920001B2
:0402280007EF01F0EB
:020000040030CA
:0E000000FF281F3CFFBF81FF0FC00FE00F4025
:00000001FF
