:0400000089EF3FF055
:107EE8006400F4017EEC3FF09CEC3FF078EF3FF04B
:107EF80000EF00F0720ED36E0F0EC16E9380938266
:107F0800939493968A948A961200E80EF66E7E0EE3
:107F1800F76E000EF86E00EE01F010EE04F00900A6
:107F2800F5CFEEFFE550E150FAE1000176EF3FF0C2
:107F380081A0A1EF3FF0A3EF3FF0BDEF3FF0020EAD
:107F4800066E040E056EBA0EE82EFED7052EFCD777
:107F5800062EFAD700D08A74060E066E130E056E2A
:107F6800AE0EE82EFED7052EFCD7062EFAD7F1EF77
:107F78003FF081A2C2EF3FF0C4EF3FF0F1EF3FF0D6
:107F8800020E066E040E056EBA0EE82EFED7052EFA
:107F9800FCD7062EFAD700D08A76B0EF3FF0020E53
:107FA800066E040E056EBA0EE82EFED7052EFCD717
:107FB800062EFAD700D08A848A86D00E056ECA0E9D
:107FC800E82EFED7052EFCD78A948A96D00E056E29
:107FD800CA0EE82EFED7052EFCD781A0F6EF3FF09B
:107FE800F8EF3FF0FFEF3FF081B2FDEF3FF0FFEF1A
:087FF8003FF0D3EF3FF012004F
:020000040030CA
:0E000000000B1F1EFF8381FF0FC00FE00F409B
:00000001FF
