:0400000070EF3FF06E
:107E9E00546520416D6F00000000BCEC3FF0DAEC41
:107EAE003FF058EF3FF000EF00F00D6E8D900D504B
:107EBE009EEC3FF00D38F00B9EEC3FF012000D6E75
:107ECE008D800D509EEC3FF00D38F00B9EEC3FF088
:107EDE0012009E0EF66E7E0EF76E000EF86E00EE1F
:107EEE0001F010EE0AF00900F5CFEEFFE550E1507B
:107EFE00FAE1000154EF3FF00BC00DF00CC00EF094
:107F0E008BEF3FF00B4A0C2A0BC0D9FF0CC0DAFFE7
:107F1E00DF50D8A495EF3FF097EF3FF089EF3FF099
:107F2E000D500B5C0B6E0E500C580C6E12000C6E3E
:107F3E008D82270E0B6EF50EE82EFED70B2EFCD77C
:107F4E0000F00CC08CFF270E0B6EF50EE82EFED740
:107F5E000B2EFCD700F08D92270E0B6EF50EE82E31
:107F6E00FED70B2EFCD700F01200720ED36E0F0E42
:107F7E00C16E9380000E956E000E966ED09EF29E90
:107F8E00F288F292F19C020E5CEC3FF0010E5CEC7A
:107F9E003FF0280E5CEC3FF00F0E5CEC3FF0060E4F
:107FAE005CEC3FF01200800E66EC3FF0000E106E9F
:107FBE00000E0F6EEEEF3FF0010E0F24D96E000E85
:107FCE001020DA6EDF5066EC3FF00F4A102A010ED9
:107FDE000B6E000E0C6E83EC3FF00B500F5C0C50D2
:107FEE001058D8A0FDEF3FF0FFEF3FF0E3EF3FF06A
:027FFE0012006F
:020000040030CA
:0E000000000B1F1EFF8381FF0FC00FE00F409B
:00000001FF
