:0400000087EF3FF057
:107EFE0090EC3FF09BEC3FF081EF3FF000EF00F095
:107F0E00066A056A046A036A026A016A00017FEF63
:107F1E003FF0720ED36E0F0EC16E000E956E000EF8
:107F2E00966E030E936E120081B0A0EF3FF0A2EF9B
:107F3E003FF0CEEF3FF0020E086E040E076EBA0E43
:107F4E00E82EFED7072EFCD7082EFAD700D0054A0A
:107F5E00062A05C001F006C002F001C08CFF81A008
:107F6E00BBEF3FF0BDEF3FF0B6EF3FF08AA0C2EFA0
:107F7E003FF0C6EF3FF0076A072AC7EF3FF0076AE8
:107F8E008A500718FE0B07188A6EFFEF3FF081A28A
:107F9E00D3EF3FF0D5EF3FF0FFEF3FF0020E086E4C
:107FAE00040E076EBA0EE82EFED7072EFCD7082E4B
:107FBE00FAD700D0034A042A0350055C8C6EF8EF02
:107FCE003FF08AA2EDEF3FF0F1EF3FF0076A072A8C
:107FDE00F2EF3FF0076A07468A500718FD0B0718A5
:107FEE008A6E81B2FDEF3FF0FFEF3FF0E8EF3FF01A
:027FFE0012006F
:020000040030CA
:0E000000000B191EFF8381FF0FC00FE00F40A1
:00000001FF
