:04000000C4EF3FF01A
:107F88000001CFEF3FF0720ED36E0F0EC16E9380DB
:107F9800939489921200C7EC3FF0D7EC3FF0D1EFF1
:107FA8003FF000EF00F081A0DCEF3FF0DEEF3FF0A4
:107FB800FFEF3FF0F8EF3FF0340E016EF20EE82EBF
:107FC800FED7012EFCD78AA4ECEF3FF0F0EF3FF08C
:107FD800016A012AF1EF3FF0016A014601468A5021
:107FE8000118FB0B01188A6E81B0FDEF3FF0FFEF1F
:087FF8003FF0E0EF3FF0120042
:020000040030CA
:0E000000000B191EFF8381FF0FC00FE00F40A1
:00000001FF
