:0400000007EF00F016
:1000080003821EED00F033EF00F0720ED36E0F0E78
:10001800C16E949C948E0C0EAF6E900EAB6E200E3B
:10002800AC6EF28ED09EF288F292F19CF088F0923B
:10003800F18812000600F2A224EF00F026EF00F08B
:1000480028EF00F0F292022AF0A22DEF00F02FEF35
:1000580000F031EF00F0F092012A03921100026AD9
:10006800016A0390039200013AEF00F009EC00F0F6
:080078003CEF00F007EF00F07F
:020000040030CA
:0E000000000B191EFF8381FF0FC00FE00F40A1
:00000001FF
