:0400000027EF3FF0B7
:107E3C00900136EC3FF04FEC3FF021EF3FF000EFBC
:107E4C0000F03C0EF66E7E0EF76E000EF86E09001A
:107E5C00F5CF09F00900F5CF0AF000011FEF3FF054
:107E6C00720ED36E0F0EC16E000E926E000E936EDC
:107E7C00000E946E000E956E000E966E000E896EBE
:107E8C00000E8A6E000E8B6E000E8C6E000E8D6EC8
:107E9C001200000E086E000E076E08BE5FEF3FF07A
:107EAC00085009E1070E075CD8A05FEF3FF061EFC7
:107EBC003FF063EF3FF09BEF3FF0020E0718081006
:107ECC00D8A46BEF3FF06DEF3FF07BEF3FF0140E5B
:107EDC008B6E050E026E0F0E016EF10EE82EFED7A4
:107EEC00012EFCD7022EFAD700F0000E8A6E07C0C6
:107EFC0001F0030E026E012A86EF3FF0D890023695
:107F0C00012E84EF3FF002508B6E050E026E0F0EA9
:107F1C00016EF10EE82EFED7012EFCD7022EFAD7F9
:107F2C0000F0074A082A53EF3FF0000E046E000ED3
:107F3C00036E04BEABEF3FF0045009E1070E035C87
:107F4C00D8A0ABEF3FF0ADEF3FF0AFEF3FF0CDEF90
:107F5C003FF003C001F0030E026E012AB8EF3FF0B0
:107F6C00D8900236012EB6EF3FF002508C6E050E03
:107F7C00026E0F0E016EF10EE82EFED7012EFCD70D
:107F8C00022EFAD700F0034A042A9FEF3FF0000EAE
:107F9C00066E000E056E06BEDDEF3FF0065009E1E1
:107FAC00030E055CD8A0DDEF3FF0DFEF3FF0E1EF13
:107FBC003FF0FFEF3FF005C001F0010E026E012A09
:107FCC00EAEF3FF0D8900236012EE8EF3FF0025076
:107FDC008D6E050E026E0F0E016EF10EE82EFED7A1
:107FEC00012EFCD7022EFAD700F0054A062AD1EF53
:047FFC003FF0120040
:020000040020DA
:08000000FFFFFFFFFFFFFFFF00
:020000040030CA
:0E0000000008191EFF8381FF0FC00FE00F40A4
:00000001FF
