:0400000007EF00F016
:1000080004823FED00F056EF00F0026E8D82270E5D
:10001800016EF50EE82EFED7012EFCD700F002C0C7
:100028008CFF1A0E016EF80EE82EFED7012EFCD7B3
:1000380000D08D921A0E016EF80EE82EFED7012E12
:10004800FCD700D01200720ED36E0F0EC16E9380D3
:10005800000E956E000E966ED09EF28EF288F29289
:10006800F19C060E50EC00F00F0E50EC00F0380E2C
:1000780050EC00F012000600F2A245EF00F047EF46
:1000880000F048EF00F0F2920492110027EC00F023
:100098004CEF00F007EF00F0036E8D90035009EC71
:0E00A80000F012000490049200014AEF00F0F4
:020000040030CA
:0E000000000B191EFF8381FF0FC00FE00F40A1
:00000001FF
